:1000000010C01FC01EC01DC01CC01BC01AC019C01C
:1000100018C017C016C015C014C013C012C011C03C
:1000200010C011241FBECFE5D2E0DEBFCDBF20E05F
:10003000A0E6B0E001C01D92AB36B207E1F712D1E5
:10004000D1C1DECF8BB32091690030916A009091CD
:10005000680091111FC08E6B90E0211542E03407BB
:1000600014F08F7D32502F3F310519F014F08F7E40
:100070003A95203831051CF0877F2058310920340B
:1000800031051CF08B7F205431092032310574F189
:100090008D7F2CC02F713078332334F421503109F7
:1000A000206E3F6F2F5F3F4FA901817420313105D2
:1000B00014F490E005C0806290E0A901405151091C
:1000C000483051051CF080614850510944305105B9
:1000D0001CF0886044505109423051051CF0846086
:1000E00042505109141615060CF482608BBB909196
:1000F000680081E0891B8093680008950F931F9327
:10010000CF93DF93D8980AE10A95F1F700C0C19820
:1001100087EC90E00197F1F700C0000010926400B6
:1001200010926500109266001092670020E030E0A7
:10013000CCE0D0E0D89A9AE19A95F1F700C023304C
:10014000310510F486B329C02D30310534F546B39E
:10015000E42FE170F0E0AE01421B530B8F0102C0AF
:10016000000F111F4A95E2F7A801662757FD609519
:10017000762F8091640090916500A0916600B09107
:100180006700840F951FA61FB71F8093640090938C
:100190006500A0936600B0936700D8981AE11A959D
:1001A000F1F700C02F5F3F4F2031310519F68091E4
:1001B000640090916500A0916600B0916700880F7F
:1001C000991FAA1FBB1FAC01BD01440F551F661F1D
:1001D000771F440F551F661F771F840F951FA61F9B
:1001E000B71FAC01BD01440F551F661F771F440F99
:1001F000551F661F771F840F951FA61FB71FAC01E1
:10020000BD01440F551F661F771F440F551F661F02
:10021000771F840F951FA61FB71FAC01BD01440FA8
:10022000551F661F771F440F551F661F771F8C01D0
:100230009D01040F151F261F371FC901B80120EDAE
:1002400037E040E050E07CD02093600030936100C4
:100250004093620050936300C19ADF91CF911F9148
:100260000F9108958FEF8ABB8EEF87BB8BB31BBABC
:1002700088B3827088BBC19AC0E0D0E004EF11E07F
:100280000F2EF2E3EF2EF12CF02DC12CD12C219664
:10029000CE01B80142D0892B21F430DFCC2DDD2DE9
:1002A00005C0CE01B70139D0892B79F5809169005D
:1002B00090916A00409160005091610060916200ED
:1002C000709163004C01AA2497FCA094BA2C841668
:1002D0009506A606B7062CF4019690936A008093C3
:1002E00069002091690030916A00C901AA2797FD31
:1002F000A095BA2F481759076A077B0734F4215095
:10030000310930936A00209369009CDE8FEC97E0FE
:100310000197F1F700C00000BACF97FB072E16F443
:10032000009406D077FD08D027D007FC05D03EF416
:10033000909581959F4F0895709561957F4F089591
:10034000052E97FB16F400940FD057FD05D028D04A
:1003500007FC02D046F408C0509540953095219591
:100360003F4F4F4F5F4F08959095809570956195E1
:100370007F4F8F4F9F4F0895AA1BBB1B51E107C0B2
:10038000AA1FBB1FA617B70710F0A61BB70B881F25
:10039000991F5A95A9F780959095BC01CD010895B4
:1003A000A1E21A2EAA1BBB1BFD010DC0AA1FBB1F79
:1003B000EE1FFF1FA217B307E407F50720F0A21BEB
:1003C000B30BE40BF50B661F771F881F991F1A9458
:1003D00069F760957095809590959B01AC01BD0182
:0803E000CF010895F894FFCF4E
:00000001FF
